{
  "_format": "hh-sol-artifact-1",
  "contractName": "AccessControl",
  "sourceName": "contracts/AccessControl.sol",
  "abi": [
    {
      "inputs": [],
      "stateMutability": "nonpayable",
      "type": "constructor"
    },
    {
      "anonymous": false,
      "inputs": [
        {
          "indexed": true,
          "internalType": "address",
          "name": "user",
          "type": "address"
        }
      ],
      "name": "AccessGranted",
      "type": "event"
    },
    {
      "anonymous": false,
      "inputs": [
        {
          "indexed": true,
          "internalType": "address",
          "name": "user",
          "type": "address"
        }
      ],
      "name": "AccessRevoked",
      "type": "event"
    },
    {
      "inputs": [
        {
          "internalType": "address",
          "name": "",
          "type": "address"
        }
      ],
      "name": "accessList",
      "outputs": [
        {
          "internalType": "bool",
          "name": "",
          "type": "bool"
        }
      ],
      "stateMutability": "view",
      "type": "function"
    },
    {
      "inputs": [
        {
          "internalType": "address",
          "name": "user",
          "type": "address"
        }
      ],
      "name": "checkAccess",
      "outputs": [
        {
          "internalType": "bool",
          "name": "",
          "type": "bool"
        }
      ],
      "stateMutability": "view",
      "type": "function"
    },
    {
      "inputs": [
        {
          "internalType": "address",
          "name": "user",
          "type": "address"
        }
      ],
      "name": "grantAccess",
      "outputs": [],
      "stateMutability": "nonpayable",
      "type": "function"
    },
    {
      "inputs": [],
      "name": "owner",
      "outputs": [
        {
          "internalType": "address",
          "name": "",
          "type": "address"
        }
      ],
      "stateMutability": "view",
      "type": "function"
    },
    {
      "inputs": [
        {
          "internalType": "address",
          "name": "user",
          "type": "address"
        }
      ],
      "name": "revokeAccess",
      "outputs": [],
      "stateMutability": "nonpayable",
      "type": "function"
    }
  ],
  "bytecode": "0x6080604052348015600f57600080fd5b50600080546001600160a01b031916331790556102aa806100316000396000f3fe608060405234801561001057600080fd5b50600436106100575760003560e01c80630ae5e7391461005c578063466a01461461007157806385e68531146100b257806387a5b67c146100c55780638da5cb5b146100e8575b600080fd5b61006f61006a366004610244565b610113565b005b61009d61007f366004610244565b6001600160a01b031660009081526001602052604090205460ff1690565b60405190151581526020015b60405180910390f35b61006f6100c0366004610244565b6101b1565b61009d6100d3366004610244565b60016020526000908152604090205460ff1681565b6000546100fb906001600160a01b031681565b6040516001600160a01b0390911681526020016100a9565b6000546001600160a01b031633146101625760405162461bcd60e51b815260206004820152600d60248201526c2737ba103a34329037bbb732b960991b60448201526064015b60405180910390fd5b6001600160a01b0381166000818152600160208190526040808320805460ff1916909217909155517fdeb5c31899474fe8c086c95ff9344480d19365676a6a1d22d37bb8e3e7c0ef189190a250565b6000546001600160a01b031633146101fb5760405162461bcd60e51b815260206004820152600d60248201526c2737ba103a34329037bbb732b960991b6044820152606401610159565b6001600160a01b038116600081815260016020526040808220805460ff19169055517f1b9b72fde9da721e70e6aca3b0cf4cbe73e82765ef1f280157740376531bfdd89190a250565b60006020828403121561025657600080fd5b81356001600160a01b038116811461026d57600080fd5b939250505056fea26469706673582212202943c85473732fe871750cd1504072e4b9d5d8ef5516b0bcd368a0199680fc9064736f6c634300081c0033",
  "linkReferences": {},
  "deployedLinkReferences": {}
}